:020000040800F2
:1000000000500020411500082114000823140008A6
:100010002514000827140008291400080000000017
:100020000000000000000000000000002B14000889
:100030002D140008000000002F14000831140008DF
:100040008915000889150008891500088915000818
:100050008915000889150008891500088915000808
:1000600089150008891500088915000889150008F8
:1000700089150008891500088915000889150008E8
:1000800089150008891500088915000889150008D8
:1000900089150008891500088915000889150008C8
:1000A00089150008891500088915000889150008B8
:1000B00089150008891500088915000889150008A8
:1000C0008915000889150008891500088915000898
:1000D0008915000889150008891500088915000888
:1000E0003F14000889150008891500080000000069
:1000F0000000000000000000000000000000000000
:0C01000000000000000000005FF808F1A3
:10010C0010B5054C237833B9044B13B10448AFF345
:10011C0000800123237010BD24000020000000008B
:10012C00D415000808B5034B1BB103490348AFF3C2
:10013C00008008BD0000000028000020D415000835
:10014C0038B50E4B054618784FF47A73B3FBF0F3C1
:10015C000B4A1068B0FBF3F000F08CF8044658B969
:10016C000F2D09D8024629464FF0FF3000F042F817
:10017C00044B20461D6038BD012038BD0000002016
:10018C000800002004000020074A08B5136803206B
:10019C0043F01003136000F01BF80020FFF7D0FFB2
:1001AC0001F0E8F8002008BD00200240034A044B8F
:1001BC0011681B780B441360704700BF6C00002063
:1001CC0000000020014B1868704700BF6C00002035
:1001DC00074A0002D36800F4E06023F4E0631B04D8
:1001EC001B0C43F0BF6343F400330343D3607047ED
:1001FC0000ED00E0174B30B5DC68C4F30224C4F109
:10020C000703251D042B28BF0423062D4FF00105E1
:10021C0098BF002405FA03F303F1FF3388BF033CB6
:10022C001940A14005FA04F4013C2240002842EA9E
:10023C0001024FEA0212AFBF00F16040064B00F022
:10024C000F00D2B2A5BFD2B200F561401A5480F8AB
:10025C00002330BD00ED00E014ED00E00123420965
:10026C0000F01F0003FA00F0014B43F82200704726
:10027C0000E100E00138B0F1807F0AD2F021064B9A
:10028C00064A586082F823100020072298601A60F2
:10029C0070470120704700BF10E000E000ED00E067
:1002AC00044B04281A680CBF42F0040222F004022A
:1002BC001A60704710E000E0704708B5FFF7FCFFCC
:1002CC0008BD00002DE9F74F00221646654BDFF8FC
:1002DC00A4E1DFF8A4C14FF001080C6808FA06F895
:1002EC0008EA0404A0457FD14D68122D00F0AF80C0
:1002FC0000F28880022D00F0A7807CD8002D00F041
:10030C008E80012D00F09E804FF00F09FF2C93BFC3
:10031C00824606F18045083DD0F800B092BFB5008A
:10032C00D0F804B0AD0009FA05F82BEA080802FA77
:10033C0005F588BF00F1040A48EA0505CAF8005023
:10034C00D1F804A01AF0805F4ED0474D464FAD69EE
:10035C0026F0030845F00105BD61BD6908F1804830
:10036C0005F00105019508F5803806F0030B019D99
:10037C004FEA8B0BD8F8085009FA0BF925EA090952
:10038C003A4DA84268D005F58065A84266D005F5BF
:10039C008065A84264D005F58065A8420CBF032592
:1003AC00042505FA0BF545EA0905C8F808501D683F
:1003BC001AF4803F14BF2543A5431D605D681AF4F1
:1003CC00003F14BF2543A5435D609D681AF4801F50
:1003DC0014BF2543A5439D60DD681AF4001F14BFAC
:1003EC002C4325EA0404DC600136102E7FF473AF35
:1003FC0003B0BDE8F08F032D22D0112D84D1CA6833
:10040C00043281E71A4FBD4209D012D8DFF86C9044
:10041C004D4504D009F580394D457FF475AF8A6898
:10042C00C2B1012A0CBFC0F81080C0F81480082299
:10043C006AE77545F3D06545F1D0DFF84490EBE7FA
:10044C00002261E7CA685FE7CA6808325CE7CA68DD
:10045C000C3259E7042257E70025A2E70125A0E753
:10046C0002259EE7000401400010024000080140F4
:10047C00000021100000311000003210000011109B
:10048C00000022100AB1016170470904FBE77047B4
:10049C0008B5044B5969014202D05861FFF7F7FFC8
:1004AC0008BD00BF0004014003682DE9F341DB07E0
:1004BC00054610D42B689F075ED42B68190700F1F2
:1004CC0095802B685A0700F1BF80EA69002A40F03A
:1004DC002D81002014E0904C636803F00C03042B76
:1004EC0007D0636803F00C03082B0CD16368DE03A0
:1004FC0009D523689C03DDD56B68002BDAD101206C
:10050C0002B0BDE8F0816B68B3F5803F10D1236871
:10051C0043F480332360FFF755FE064623689803A7
:10052C00C8D4FFF74FFE801B6428F7D90320E7E7F8
:10053C009BB9236823F480332360236823F480233E
:10054C002360FFF73FFE064623689903B2D5FFF7F9
:10055C0039FE801B6428F7D9E8E7B3F5A02F236890
:10056C0003D143F480232360D1E723F48033236049
:10057C00236823F48023CDE7674C636813F00C0FDA
:10058C0007D0636803F00C03082B10D16368DA03FF
:10059C000DD423689B0702D52B69012BAFD123689F
:1005AC006A6923F0F80343EAC203236085E72A69EA
:1005BC005A4B6AB101221A60FFF704FE0646236803
:1005CC009F07ECD4FFF7FEFD801B0228F7D9ADE79F
:1005DC001A60FFF7F7FD0646236898077FF56DAFA5
:1005EC00FFF7F0FD801B0228F6D99FE7AA694A4C59
:1005FC004B4BDAB101221A60FFF7E4FD0646636A41
:10060C009B070DD54FF4FA52464B1B68B3FBF2F324
:10061C00019300BF019B5A1E0192002BF9D150E7A8
:10062C00FFF7D0FD801B0228E9D97FE71A60FFF79E
:10063C00C9FD0646636A9F077FF543AFFFF7C2FD0E
:10064C00801B0228F6D971E7334CE369D80024D417
:10065C000127E36943F08053E361E36903F08053BE
:10066C000093009B304E3368D90518D5EB68012BED
:10067C0026D1236A43F001032362FFF7A3FD41F265
:10068C0088368046236A9B073FD5002F3FF41DAF69
:10069C00E36923F08053E36117E70027E2E733684F
:1006AC0043F480733360FFF78DFD80463368DA05C1
:1006BC00DCD4FFF787FDA0EB08006428F6D935E7FA
:1006CC00ABB9236A41F2883823F001032362236A11
:1006DC0023F004032362FFF775FD0646236A98078F
:1006EC00D3D5FFF76FFD801B4045F7D91EE7052BCF
:1006FC00236A03D143F004032362BAE723F0010316
:10070C002362236A23F00403B6E7FFF75BFDA0EB3B
:10071C000800B042B6D909E700100240000042427E
:10072C00800442420800002000700040224C6368A4
:10073C0003F00C03082B3FF4E2AE00231F4E022AF9
:10074C0033602BD1FFF73EFD0746236899011FD478
:10075C002B6AB3F5803F05D16268A96822F4003298
:10076C000A436260696A62680B4322F47412134391
:10077C00636001233360FFF725FD054623689A016A
:10078C003FF5A7AEFFF71EFD401B0228F6D9CDE6BC
:10079C00FFF718FDC01B0228D7D9C7E6FFF712FDDB
:1007AC00054623689B017FF594AEFFF70BFD401BBC
:1007BC000228F6D9BAE600BF00100240600042429F
:1007CC0030B5194B87B002AC03F1100522461868FE
:1007DC005968083303C2AB421446F7D101238DF894
:1007EC000430022311498DF805304B6803F00C02DC
:1007FC00082A17D1C3F3834206A80244DB0312F87C
:10080C00102C0CD54B680A48C3F34043504306AA3E
:10081C00134413F8143CB0FBF3F007B030BD05489B
:10082C005043FAE70248F8E7EC15000800100240C4
:10083C0000127A0000093D004D4A2DE9F041136881
:10084C00054603F007038B420E4628D32A6891070E
:10085C0032D4D20738D4464A136803F007039E42B9
:10086C0073D32A68434C12F0040F79D1130706D5C1
:10087C0063682A6923F4605343EAC2036360FFF799
:10088C009FFF63683C4AC3F30313D35CD8403B4BD4
:10089C0018600020FFF754FC0020BDE8F0811368BD
:1008AC0023F007030B431360136803F0070399420B
:1008BC00CCD00120BDE8F0812E49A8684B6823F00C
:1008CC00F00303434B60C4E76A682A4C012A23688F
:1008DC001CD113F4003FECD0636841F2883823F04C
:1008EC00030313436360FFF76DFC6B680746012B32
:1008FC0014D1636803F00C03042BACD0FFF762FC3B
:10090C00C01B4045F5D90320BDE8F081022A02D175
:10091C0013F0007FDFE713F0020FDCE7022B0FD19F
:10092C00636803F00C03082B95D0FFF74BFCC01B3E
:10093C004045F5D9E7E7FFF745FCC01B4045E2D839
:10094C00636813F00C0FF6D185E7136823F00703E7
:10095C0033431360136803F007039E42A9D180E769
:10096C006368E96823F4E0630B4363607EE700BFD0
:10097C0000200240001002400D1600080800002064
:10098C00014B1868704700BF08000020044B054A53
:10099C005B68C3F30223D35C034A1068D8407047EA
:1009AC00001002401D16000808000020044B054AE8
:1009BC005B68C3F3C223D35C034A1068D84070470A
:1009CC00001002401D1600080800002010B5044657
:1009DC00002834D00023836290F851300BB900F01A
:1009EC009FFC0223216884F851300B68A06823F027
:1009FC0040030B606368A2690343E068034320690A
:100A0C00034360690343E0690343206A0343A06A1C
:100A1C00034302F4007003430B60120C636A02F090
:100A2C0004021A43E36A4A600B61CB69002023F489
:100A3C000063CB610123606584F8513010BD012047
:100A4C0010BD00002DE9F0470568C2682B690169EB
:100A5C0023F4405313432B618368EA680B434169C9
:100A6C0022F4B05222F00C020B431343EB606B697F
:100A7C00826923F4407313436B61404B81469D4262
:100A8C004FF0190446D1FFF791FF04FB00F3D9F89E
:100A9C0004604FF06408B600B3FBF6F3B3FBF8F355
:100AAC001E01FFF783FF6043D9F804309B00B0FBB5
:100ABC00F3F7FFF77BFF6043D9F804309B00B0FBE2
:100ACC00F3F3B3FBF8F308FB13731B013233B3FBE3
:100ADC00F8F303F0F007FFF769FF6043D9F804203F
:100AEC009200B0FBF2FAFFF761FF6043D9F80430D3
:100AFC009B00B0FBF3F3B3FBF8F308FB13A31B0150
:100B0C003233B3FBF8F303F00F033B433344AB60D6
:100B1C00BDE8F087FFF73AFF04FB00F3D9F8046057
:100B2C004FF06408B600B3FBF6F3B3FBF8F31E0109
:100B3C00FFF72CFF6043D9F804309B00B0FBF3F7B0
:100B4C00FFF724FF6043D9F804309B00B0FBF3F3AC
:100B5C00B3FBF8F308FB13731B013233B3FBF8F34D
:100B6C0003F0F007FFF712FF6043D9F8042092005E
:100B7C00B0FBF2FAFFF70AFFB7E700BF00380140FD
:100B8C0010B5044640B390F8393003F0FF021BB99E
:100B9C0080F8382000F098FC2423226884F839303F
:100BAC00D368204623F40053D360FFF74BFF236830
:100BBC0000201A6922F490421A615A6922F02A0222
:100BCC005A61DA6842F40052DA602023E06384F858
:100BDC00393084F83A3010BD012010BD034B1A187F
:100BEC0003EB80035B68107A5B6818476000002099
:100BFC00064B1A5C42B901221A541A1803EB8003F3
:100C0C005B68107A1B681847002070476000002052
:100C1C0030B4054C251804EB800460688468287A8D
:100C2C00A44630BC604700BF6000002030B4054CC7
:100C3C00251804EB80046068C468287AA44630BC8C
:100C4C00604700BF6000002010B4044B1C1803EB7D
:100C5C0080035B68207A1B6910BC18476000002079
:100C6C00026810B552B111460B4611F8014B1F2CFE
:100C7C000CD93A2CF8D1511C8B4202D04FF0FF30DA
:100C8C0010BD1278302AF9D101330360002010BD59
:100C9C0041F22C032DE9F04141F20107C5580446FD
:100CAC00014601232A46C05DFFF7C0FF08BB41F295
:100CBC000403E05404F581531A6841F21803E15817
:100CCC00AA1A8A4202D30020BDE8F08141F2030245
:100CDC0014F80280E618B8F1010FF4D933682146F4
:100CEC001D442A460123E05DFFF7A0FF08F1FF3801
:100CFC00F1E70120BDE8F08141F20403C35C0BB1C4
:100D0C00FFF7C6BF18467047F8B541F22C07C35918
:100D1C0006468B420D4613D0FFF7EEFF044668B92A
:100D2C0041F201002A4601233146305CFFF770FF87
:100D3C0000281CBF4FF0FF350124F5512046F8BDAB
:100D4C000024FBE7002241F2040310B5C2544FF01B
:100D5C00FF3241F22C03C2500446FFF7D5FFC0B955
:100D6C0094F8FF2194F8FE3143EA02234AF6552207
:100D7C00934210D1D4F83630084A23F07F43934283
:100D8C000AD0D4F8520020F07F40801A18BF0120FE
:100D9C0010BD032010BD022010BD00BF4641540001
:100DAC002DE9FF4700230646036008461546FFF76A
:100DBC0057FF071EC0F26281B44B53F82740002C3A
:100DCC0000F05E81346004F58056337883B141F2D3
:100DDC000103E05CFFF702FFC10709D4002D00F00E
:100DEC00518110F0040000D00A2004B0BDE8F08757
:100DFC000023337041F20103F8B2E054FFF7F8FE20
:100E0C00C20700F141810DB14307EDD441F201035A
:100E1C0041F20A0502216219E05CFFF715FF074653
:100E2C0008B10120E1E7635BA3F500739BB2B3F556
:100E3C00606FF6D801462046FFF784FF012840F08A
:100E4C00FF80384604F5E37212F8043C03B11368D2
:100E5C004DF820300130042802F11002F4D10027A3
:100E6C005DF82750002D00F0E38029462046FFF75F
:100E7C0069FF002840F0DD80237BE07A40EA032004
:100E8C0041F20A03E35A834240F0DE80E37DA17D08
:100E9C0051EA032141F2180308BF616AE15041F2A3
:100EAC00030394F810E004F803E00EF1FF33012B78
:100EBC0000F2CA8041F20203677BE754002F00F076
:100ECC00C3807B1E3B4240F0BF80A37C94F8118012
:100EDC0048EA032841F2080324F803804309B8FBCD
:100EEC00F3F203FB12839BB2002B40F0AD8094F81D
:100EFC0014C0E37C94F80F9053EA0C2394F80EC0C2
:100F0C0008BF236A5CEA092C00F09E8001FB0EFEF0
:100F1C0092B2624472449342C0F096809B1AB3FB27
:100F2C00F7F3002B00F0908040F6F577BB4240F2CF
:100F3C008F804FF6F577BB4294BF0227032741F20F
:100F4C001409023344F8093041F21C09AC4444F84A
:100F5C00095004F58159C9F800C041F228092A4406
:100F6C00032F44F8092075D1B8F1000F6CD141F270
:100F7C00240EE26A9B0044F80E20421E1344B3FB7D
:100F8C00F0F0814260D34FF0FF3341F2100941F28F
:100F9C000C0844F8093041F2050A44F80830802363
:100FAC00032F04F80A302DD194F8312094F8303006
:100FBC0043EA0223012B25D1691C2046FFF7A4FE2E
:100FCC0000BB04F80A0094F8FF2194F8FE3143EAC0
:100FDC0002234AF65522934214D122682C4B9A4292
:100FEC0010D103F1FF53D4F8E42103F5005320335F
:100FFC009A4201BFD4F8E83144F80930D4F8EC3106
:10100C0044F80830234A37701388002001339BB210
:10101C00138041F20602A3521F4B1A68944204BF7C
:10102C0000221A60DA6894427FF4DFAED860DCE606
:10103C0002200137042F7FF413AF032804D1F0E60C
:10104C0003283FF4EEAE08B10D20CEE6054613E7BB
:10105C00012774E7B8F1000FF6D00EEB0C0241F249
:10106C00240E022F44F80E204FEA43021BBFD21865
:10107C0003F00103134603EB52037EE70B20B4E6A7
:10108C000C20B2E62846B0E60320AEE64000002075
:10109C00525261415C000020440000207FB5019059
:1010AC0004A840F8041D00911546FFF7D9FD061E53
:1010BC0023DB144A52F826306BB11349002408681C
:1010CC00834204BF00200860C868834203F5805344
:1010DC0008BFCC601C70019818B1002100F580533A
:1010EC00197042F8260030B1012D08D10022694652
:1010FC0001A8FFF755FE04B070BD0B20FBE70020E4
:10110C00F9E700BF400000204400002030B50F4B31
:10111C005C7A012C18D800245D7AEDB25C555D7AAE
:10112C0003EB85056860587A184402725A7AD2B279
:10113C00501CC0B258723A234B702F2330320A70B5
:10114C008B70CC70204630BD012030BD600000207B
:10115C000022FFF7DBBF000008B503490348FFF787
:10116C00F7FF034B187008BD700000201000002022
:10117C0074000020264B30B59A6989B042F01002F9
:10118C009A619A69234D02F010020092009A9A69B2
:10119C00284642F020029A619A69402102F020020E
:1011AC000192019A9A69002442F004029A619A69A8
:1011BC0002F004020292029A9A6942F008029A61C1
:1011CC009B69002203F008030393039BFFF75AF972
:1011DC004FF400530493104B04A910480593069444
:1011EC00FFF770F840230493012305930693022321
:1011FC0004A928460793FFF765F8224621462820C4
:10120C00FEF7F8FF2820FFF729F809B030BD00BF22
:10121C0000100240000C01400000211000100140A1
:10122C00012310B590B04FF4A02206930A934FF40B
:10123C0080330792022400220E934FF4E01306A889
:10124C0008920D940F93FFF72FF900B1FEE70F23CF
:10125C0001934FF4806303900590214601A80294FA
:10126C000493FFF7E9FA044600B1FEE7FFF788FBA9
:10127C004FF47A73B0FBF3F0FEF7FCFF0420FFF79A
:10128C000FF8224621464FF0FF30FEF7B3FF10B0A7
:10129C0010BD000000B5ADF5815D85B0FEF774FFA3
:1012AC0001220A496846FFF7F9FE0122074900208E
:1012BC00FFF7F4FEFFF7B4FFFFF75CFF00F00AF84E
:1012CC00FFF74AFF00F0E0F8FEE700BFFC1500084E
:1012DC00FEE7000008B54FF4827E0E480E4B4FF42B
:1012EC00007280E80840002382618360C360036160
:1012FC00436120220362436283620A23C261C36298
:10130C00FFF764FB28B1BDE808404F210348FFF705
:10131C00DFBF08BDD42000200030014000160008BB
:10132C007FB50268114B9A421DD103F560439A694F
:10133C0002A942F480529A619B690D4803F48053D0
:10134C000193019BA0230293022303930323059390
:10135C00FEF7B8FF40230293002302A9044803932D
:10136C000493FEF7AFFF07B05DF804FB00300140BB
:10137C0000080140254B07B59A69032042F0010291
:10138C009A619A6902F001020092009ADA6942F0BD
:10139C008052DA61DB6903F080530193019BFEF705
:1013AC0017FF00226FF00B001146FEF723FF0022FF
:1013BC006FF00A001146FEF71DFF00226FF00900C6
:1013CC001146FEF717FF00226FF004001146FEF7DE
:1013DC0011FF00226FF003001146FEF70BFF0022F5
:1013EC006FF001001146FEF705FF00224FF0FF30B1
:1013FC001146FEF7FFFE064A536823F0E06343F004
:10140C000073536003B05DF804FB00BF0010024092
:10141C00000001407047FEE7FEE7FEE7FEE770477D
:10142C007047704708B5FEF7C1FEBDE80840FEF7EF
:10143C0044BF4FF40050FFF72BB800000F4B1A6855
:10144C0042F001021A6059680D4A0A405A601A6843
:10145C0022F0847222F480321A601A6822F48022FC
:10146C001A605A6822F4FE025A604FF41F029A6006
:10147C004FF00062034B9A60704700BF00100240AF
:10148C000000FFF800ED00E008B54FF4E13E0B481A
:10149C000B4B0C2280E80840002342618360C36040
:1014AC0003618361C361FFF76BFB28B1BDE80840A2
:1014BC004C210448FFF70CBF08BD00BF2C210020B5
:1014CC0000440040251600087FB502680C4B9A4278
:1014DC0013D103F5E633DA6902A942F40032DA617A
:1014EC00DB69084803F400330193019B0C2302933E
:1014FC00022303930593FEF7E5FE07B05DF804FBAA
:10150C0000440040000801400122024B1A70187878
:10151C00704700BF0C00002000207047012070476E
:10152C00002070470122024B1A701878704700BFD8
:10153C000C000020002103E00B4B5B58435004319E
:10154C000A480B4B42189A42F6D30A4A02E000238F
:10155C0042F8043B084B9A42F9D3FFF76FFF00F0B7
:10156C000FF8FFF797FE70473C16000800000020AC
:10157C0024000020240000206C210020FEE7000045
:10158C0070B500250C4E0D4CA41BA410A54209D11E
:10159C0000F01AF800250A4E0A4CA41BA410A54210
:1015AC0005D170BD56F8253098470135EEE756F851
:1015BC00253098470135F2E7341600083416000838
:1015CC003416000838160008F8B500BFF8BC08BC83
:1015DC009E467047F8B500BFF8BC08BC9E467047E5
:1015EC0002030405060708090A0B0C0D0E0F101058
:1015FC00303A2F002E2E2F5372632F7370692E6387
:10160C0000000000000000000001020304060708AF
:10161C000900000000010203042E2E2F5372632FC9
:08162C0075736172742E6300F6
:041634003101000878
:041638000D01000898
:10163C00010000001000000000A24A04010000009C
:10164C0031150008151500082D1500082515000882
:04165C002915000844
:040000050800154199
:00000001FF
