:020000040800F2
:1000000000500020D1250008B1240008B3240008C6
:10001000B5240008B7240008B92400080000000037
:10002000000000000000000000000000BB240008E9
:10003000BD24000800000000BF240008C1240008FF
:100040001926000819260008192600081926000894
:100050001926000819260008192600081926000884
:100060001926000819260008192600081926000874
:100070001926000819260008192600081926000864
:100080001926000819260008192600081926000854
:100090001926000819260008192600081926000844
:1000A0001926000819260008192600081926000834
:1000B0001926000819260008192600081926000824
:1000C0001926000819260008192600081926000814
:1000D0001926000819260008192600081926000804
:1000E000CF24000819260008192600080000000087
:1000F0000000000000000000000000000000000000
:0C01000000000000000000005FF808F1A3
:10010C0010B5054C237833B9044B13B10448AFF345
:10011C0000800123237010BD24000020000000008B
:10012C006426000808B5034B1BB103490348AFF321
:10013C00008008BD00000000280000206426000894
:10014C0038B50E4B054618784FF47A73B3FBF0F3C1
:10015C000B4A1068B0FBF3F000F08CF8044658B969
:10016C000F2D09D8024629464FF0FF3000F042F817
:10017C00044B20461D6038BD012038BD0000002016
:10018C000800002004000020074A08B5136803206B
:10019C0043F01003136000F01BF80020FFF7D0FFB2
:1001AC0002F030F9002008BD00200240034A044B45
:1001BC0011681B780B441360704700BF6C02002061
:1001CC0000000020014B1868704700BF6C02002033
:1001DC00074A0002D36800F4E06023F4E0631B04D8
:1001EC001B0C43F0BF6343F400330343D3607047ED
:1001FC0000ED00E0174B30B5DC68C4F30224C4F109
:10020C000703251D042B28BF0423062D4FF00105E1
:10021C0098BF002405FA03F303F1FF3388BF033CB6
:10022C001940A14005FA04F4013C2240002842EA9E
:10023C0001024FEA0212AFBF00F16040064B00F022
:10024C000F00D2B2A5BFD2B200F561401A5480F8AB
:10025C00002330BD00ED00E014ED00E00123420965
:10026C0000F01F0003FA00F0014B43F82200704726
:10027C0000E100E00138B0F1807F0AD2F021064B9A
:10028C00064A586082F823100020072298601A60F2
:10029C0070470120704700BF10E000E000ED00E067
:1002AC00044B04281A680CBF42F0040222F004022A
:1002BC001A60704710E000E0704708B5FFF7FCFFCC
:1002CC0008BD00002DE9F74F00221646654BDFF8FC
:1002DC00A4E1DFF8A4C14FF001080C6808FA06F895
:1002EC0008EA0404A0457FD14D68122D00F0AF80C0
:1002FC0000F28880022D00F0A7807CD8002D00F041
:10030C008E80012D00F09E804FF00F09FF2C93BFC3
:10031C00824606F18045083DD0F800B092BFB5008A
:10032C00D0F804B0AD0009FA05F82BEA080802FA77
:10033C0005F588BF00F1040A48EA0505CAF8005023
:10034C00D1F804A01AF0805F4ED0474D464FAD69EE
:10035C0026F0030845F00105BD61BD6908F1804830
:10036C0005F00105019508F5803806F0030B019D99
:10037C004FEA8B0BD8F8085009FA0BF925EA090952
:10038C003A4DA84268D005F58065A84266D005F5BF
:10039C008065A84264D005F58065A8420CBF032592
:1003AC00042505FA0BF545EA0905C8F808501D683F
:1003BC001AF4803F14BF2543A5431D605D681AF4F1
:1003CC00003F14BF2543A5435D609D681AF4801F50
:1003DC0014BF2543A5439D60DD681AF4001F14BFAC
:1003EC002C4325EA0404DC600136102E7FF473AF35
:1003FC0003B0BDE8F08F032D22D0112D84D1CA6833
:10040C00043281E71A4FBD4209D012D8DFF86C9044
:10041C004D4504D009F580394D457FF475AF8A6898
:10042C00C2B1012A0CBFC0F81080C0F81480082299
:10043C006AE77545F3D06545F1D0DFF84490EBE7FA
:10044C00002261E7CA685FE7CA6808325CE7CA68DD
:10045C000C3259E7042257E70025A2E70125A0E753
:10046C0002259EE7000401400010024000080140F4
:10047C00000021100000311000003210000011109B
:10048C00000022100AB1016170470904FBE77047B4
:10049C0008B5044B5969014202D05861FFF7F7FFC8
:1004AC0008BD00BF0004014003682DE9F341DB07E0
:1004BC00054610D42B689F075ED42B68190700F1F2
:1004CC0095802B685A0700F1BF80EA69002A40F03A
:1004DC002D81002014E0904C636803F00C03042B76
:1004EC0007D0636803F00C03082B0CD16368DE03A0
:1004FC0009D523689C03DDD56B68002BDAD101206C
:10050C0002B0BDE8F0816B68B3F5803F10D1236871
:10051C0043F480332360FFF755FE064623689803A7
:10052C00C8D4FFF74FFE801B6428F7D90320E7E7F8
:10053C009BB9236823F480332360236823F480233E
:10054C002360FFF73FFE064623689903B2D5FFF7F9
:10055C0039FE801B6428F7D9E8E7B3F5A02F236890
:10056C0003D143F480232360D1E723F48033236049
:10057C00236823F48023CDE7674C636813F00C0FDA
:10058C0007D0636803F00C03082B10D16368DA03FF
:10059C000DD423689B0702D52B69012BAFD123689F
:1005AC006A6923F0F80343EAC203236085E72A69EA
:1005BC005A4B6AB101221A60FFF704FE0646236803
:1005CC009F07ECD4FFF7FEFD801B0228F7D9ADE79F
:1005DC001A60FFF7F7FD0646236898077FF56DAFA5
:1005EC00FFF7F0FD801B0228F6D99FE7AA694A4C59
:1005FC004B4BDAB101221A60FFF7E4FD0646636A41
:10060C009B070DD54FF4FA52464B1B68B3FBF2F324
:10061C00019300BF019B5A1E0192002BF9D150E7A8
:10062C00FFF7D0FD801B0228E9D97FE71A60FFF79E
:10063C00C9FD0646636A9F077FF543AFFFF7C2FD0E
:10064C00801B0228F6D971E7334CE369D80024D417
:10065C000127E36943F08053E361E36903F08053BE
:10066C000093009B304E3368D90518D5EB68012BED
:10067C0026D1236A43F001032362FFF7A3FD41F265
:10068C0088368046236A9B073FD5002F3FF41DAF69
:10069C00E36923F08053E36117E70027E2E733684F
:1006AC0043F480733360FFF78DFD80463368DA05C1
:1006BC00DCD4FFF787FDA0EB08006428F6D935E7FA
:1006CC00ABB9236A41F2883823F001032362236A11
:1006DC0023F004032362FFF775FD0646236A98078F
:1006EC00D3D5FFF76FFD801B4045F7D91EE7052BCF
:1006FC00236A03D143F004032362BAE723F0010316
:10070C002362236A23F00403B6E7FFF75BFDA0EB3B
:10071C000800B042B6D909E700100240000042427E
:10072C00800442420800002000700040224C6368A4
:10073C0003F00C03082B3FF4E2AE00231F4E022AF9
:10074C0033602BD1FFF73EFD0746236899011FD478
:10075C002B6AB3F5803F05D16268A96822F4003298
:10076C000A436260696A62680B4322F47412134391
:10077C00636001233360FFF725FD054623689A016A
:10078C003FF5A7AEFFF71EFD401B0228F6D9CDE6BC
:10079C00FFF718FDC01B0228D7D9C7E6FFF712FDDB
:1007AC00054623689B017FF594AEFFF70BFD401BBC
:1007BC000228F6D9BAE600BF00100240600042429F
:1007CC0030B5194B87B002AC03F1100522461868FE
:1007DC005968083303C2AB421446F7D101238DF894
:1007EC000430022311498DF805304B6803F00C02DC
:1007FC00082A17D1C3F3834206A80244DB0312F87C
:10080C00102C0CD54B680A48C3F34043504306AA3E
:10081C00134413F8143CB0FBF3F007B030BD05489B
:10082C005043FAE70248F8E77C2600080010024023
:10083C0000127A0000093D004D4A2DE9F041136881
:10084C00054603F007038B420E4628D32A6891070E
:10085C0032D4D20738D4464A136803F007039E42B9
:10086C0073D32A68434C12F0040F79D1130706D5C1
:10087C0063682A6923F4605343EAC2036360FFF799
:10088C009FFF63683C4AC3F30313D35CD8403B4BD4
:10089C0018600020FFF754FC0020BDE8F0811368BD
:1008AC0023F007030B431360136803F0070399420B
:1008BC00CCD00120BDE8F0812E49A8684B6823F00C
:1008CC00F00303434B60C4E76A682A4C012A23688F
:1008DC001CD113F4003FECD0636841F2883823F04C
:1008EC00030313436360FFF76DFC6B680746012B32
:1008FC0014D1636803F00C03042BACD0FFF762FC3B
:10090C00C01B4045F5D90320BDE8F081022A02D175
:10091C0013F0007FDFE713F0020FDCE7022B0FD19F
:10092C00636803F00C03082B95D0FFF74BFCC01B3E
:10093C004045F5D9E7E7FFF745FCC01B4045E2D839
:10094C00636813F00C0FF6D185E7136823F00703E7
:10095C0033431360136803F007039E42A9D180E769
:10096C006368E96823F4E0630B4363607EE700BFD0
:10097C000020024000100240082C00080800002053
:10098C00014B1868704700BF08000020044B054A53
:10099C005B68C3F30223D35C034A1068D8407047EA
:1009AC0000100240182C000808000020044B054AD7
:1009BC005B68C3F3C223D35C034A1068D84070470A
:1009CC0000100240182C00080800002010B5044646
:1009DC00002834D00023836290F851300BB901F019
:1009EC00E7FC0223216884F851300B68A06823F0DF
:1009FC0040030B606368A2690343E068034320690A
:100A0C00034360690343E0690343206A0343A06A1C
:100A1C00034302F4007003430B60120C636A02F090
:100A2C0004021A43E36A4A600B61CB69002023F489
:100A3C000063CB610123606584F8513010BD012047
:100A4C0010BD00002DE9F0470568C2682B690169EB
:100A5C0023F4405313432B618368EA680B434169C9
:100A6C0022F4B05222F00C020B431343EB606B697F
:100A7C00826923F4407313436B61404B81469D4262
:100A8C004FF0190446D1FFF791FF04FB00F3D9F89E
:100A9C0004604FF06408B600B3FBF6F3B3FBF8F355
:100AAC001E01FFF783FF6043D9F804309B00B0FBB5
:100ABC00F3F7FFF77BFF6043D9F804309B00B0FBE2
:100ACC00F3F3B3FBF8F308FB13731B013233B3FBE3
:100ADC00F8F303F0F007FFF769FF6043D9F804203F
:100AEC009200B0FBF2FAFFF761FF6043D9F80430D3
:100AFC009B00B0FBF3F3B3FBF8F308FB13A31B0150
:100B0C003233B3FBF8F303F00F033B433344AB60D6
:100B1C00BDE8F087FFF73AFF04FB00F3D9F8046057
:100B2C004FF06408B600B3FBF6F3B3FBF8F31E0109
:100B3C00FFF72CFF6043D9F804309B00B0FBF3F7B0
:100B4C00FFF724FF6043D9F804309B00B0FBF3F3AC
:100B5C00B3FBF8F308FB13731B013233B3FBF8F34D
:100B6C0003F0F007FFF712FF6043D9F8042092005E
:100B7C00B0FBF2FAFFF70AFFB7E700BF00380140FD
:100B8C0010B5044640B390F8393003F0FF021BB99E
:100B9C0080F8382001F0E0FC2423226884F83930F6
:100BAC00D368204623F40053D360FFF74BFF236830
:100BBC0000201A6922F490421A615A6922F02A0222
:100BCC005A61DA6842F40052DA602023E06384F858
:100BDC00393084F83A3010BD012010BD034B1A187F
:100BEC0003EB80035B68107A5B6818476002002097
:100BFC00064B1A5C42B901221A541A1803EB8003F3
:100C0C005B68107A1B681847002070476002002050
:100C1C0030B4054C251804EB800460688468287A8D
:100C2C00A44630BC604700BF6002002030B4054CC5
:100C3C00251804EB80046068C468287AA44630BC8C
:100C4C00604700BF6002002010B4044B1C1803EB7B
:100C5C0080035B68207A1B6910BC18476002002077
:100C6C0001380A44914200D1704711F8013B00F859
:100C7C00013FF7E70244904200D1704700F8011B96
:100C8C00F9E70000F0B5002400F5805C174B6546D1
:100C9C00604622469E46083506301E68B6B1DCF822
:100CAC000070BE4213D15F682E68B7420FD11F8906
:100CBC000688B7420BD1B9B90C2303FB02E2538966
:100CCC00B3F5807F14BF00201020F0BD0124013249
:100CDC00022A03F10C03E0D10CB10020F0BD022973
:100CEC000CBF00201220F0BD1020F0BD44000020ED
:100CFC002DE9F041284C00F58053D3F800E08846EC
:100D0C000023224600F5805500F58056083506363E
:100D1C002768774508D1296867688F4204D1B4F8F1
:100D2C0008C03788BC4528D00133022B04F10C04D1
:100D3C00EED1136813B1D36853BB01230C245C436D
:100D4C00151942F804E041F2080404596C6041F2B0
:100D5C000604005B288100206881B8F1000F14D1D3
:100D6C000C2101FB03214989013189B20C2000FBC4
:100D7C000322581C5181BDE8F081B8F1000FEFD06F
:100D8C000C2101FB0321498911B94FF48071EDE766
:100D9C000020BDE8F08100BF44000020024600F1B5
:100DAC000B010020C30143EA500312F8010B03446A
:100DBC008A4203F0FF00F5D17047026810B552B1BA
:100DCC0011460B4611F8014B1F2C0CD93A2CF8D1BB
:100DDC00511C8B4202D04FF0FF3010BD1278302ADC
:100DEC00F9D101330360002010BDCA7E8B7E03282D
:100DFC0043EA022301BF487D0A7D42EA002243EA0E
:100E0C0002431846704741F22C032DE9F04141F2A0
:100E1C000107C5580446014601232A46C05DFFF769
:100E2C0005FF08BB41F20403E05404F581531A6832
:100E3C0041F21803E158AA1A8A4202D30020BDE8F5
:100E4C00F08141F2030214F80280E618B8F1010FA8
:100E5C00F4D9336821461D442A460123E05DFFF78F
:100E6C00E5FE08F1FF38F1E70120BDE8F08141F221
:100E7C000403C35C0BB1FFF7C6BF18467047F8B547
:100E8C0041F22C07C35906468B420D4613D0FFF78F
:100E9C00EEFF044668B941F201002A4601233146AF
:100EAC00305CFFF7B5FE00281CBF4FF0FF35012466
:100EBC00F5512046F8BD0024FBE70000002241F26A
:100ECC00040310B5C2544FF0FF3241F22C03C25050
:100EDC000446FFF7D4FFC0B994F8FF2194F8FE3113
:100EEC0043EA02234AF65522934210D1D4F8363005
:100EFC00084A23F07F4393420AD0D4F8520020F0E2
:100F0C007F40801A18BF012010BD032010BD0220A5
:100F1C0010BD00BF464154002DE9FF470023064693
:100F2C00036008461546FFF748FF071EC0F26281B2
:100F3C00B44B53F82740002C00F05E81346004F56C
:100F4C008056337883B141F20103E05CFFF746FE33
:100F5C00C10709D4002D00F0518110F0040000D01D
:100F6C000A2004B0BDE8F0870023337041F201037E
:100F7C00F8B2E054FFF73CFEC20700F141810DB11D
:100F8C004307EDD441F2010341F20A050221621933
:100F9C00E05CFFF759FE074608B10120E1E7635B0F
:100FAC00A3F500739BB2B3F5606FF6D801462046EB
:100FBC00FFF784FF012840F0FF80384604F5E37208
:100FCC0012F8043C03B113684DF8203001300428AA
:100FDC0002F11002F4D100275DF82750002D00F02B
:100FEC00E38029462046FFF769FF002840F0DD80AA
:100FFC00237BE07A40EA032041F20A03E35A83425E
:10100C0040F0DE80E37DA17D51EA032141F218031B
:10101C0008BF616AE15041F2030394F810E004F850
:10102C0003E00EF1FF33012B00F2CA8041F2020300
:10103C00677BE754002F00F0C3807B1E3B4240F0DF
:10104C00BF80A37C94F8118048EA032841F208037E
:10105C0024F803804309B8FBF3F203FB12839BB221
:10106C00002B40F0AD8094F814C0E37C94F80F9002
:10107C0053EA0C2394F80EC008BF236A5CEA092CCF
:10108C0000F09E8001FB0EFE92B2624472449342C9
:10109C00C0F096809B1AB3FBF7F3002B00F0908006
:1010AC0040F6F577BB4240F28F804FF6F577BB42A6
:1010BC0094BF0227032741F21409023344F8093084
:1010CC0041F21C09AC4444F8095004F58159C9F8A3
:1010DC0000C041F228092A44032F44F8092075D195
:1010EC00B8F1000F6CD141F2240EE26A9B0044F877
:1010FC000E20421E1344B3FBF0F0814260D34FF03C
:10110C00FF3341F2100941F20C0844F8093041F266
:10111C00050A44F808308023032F04F80A302DD137
:10112C0094F8312094F8303043EA0223012B25D176
:10113C00691C2046FFF7A3FE00BB04F80A0094F8D4
:10114C00FF2194F8FE3143EA02234AF655229342DA
:10115C0014D122682C4B9A4210D103F1FF53D4F8CE
:10116C00E42103F5005320339A4201BFD4F8E8314F
:10117C0044F80930D4F8EC3144F80830234A37707D
:10118C001388002001339BB2138041F20602A35254
:10119C001F4B1A68944204BF00221A60DA6894420A
:1011AC007FF4DFAED860DCE602200137042F7FF439
:1011BC0013AF032804D1F0E603283FF4EEAE08B1D8
:1011CC000D20CEE6054613E7012774E7B8F1000FB2
:1011DC00F6D00EEB0C0241F2240E022F44F80E2036
:1011EC004FEA43021BBFD21803F00103134603EB73
:1011FC0052037EE70B20B4E60C20B2E62846B0E69C
:10120C000320AEE640000020525261415C000020F9
:10121C004400002041F21403C3580239023B9942A6
:10122C003FBF41F2020341F22802C35C805834BF35
:10123C0001FB03000020704701292DE9F843054606
:10124C000E4640F2828041F21403C35899427CD27C
:10125C0000F580531B78022B39D0032B52D0012B75
:10126C0073D141F20A0830F8083001EB5104B4FB99
:10127C00F3F300F58159D9F800101944FFF7FFFD7D
:10128C0018B14FF0FF30BDE8F88335F80810671C33
:10129C00B4FBF1F301FB1344B7FBF1F1D9F80030C7
:1012AC00284619442C5DFFF7EAFD0028E9D135F8F2
:1012BC000820B7FBF2F302FB1373E85CF30744EA74
:1012CC0000204CBF0009C0F30B00BDE8F88341F2CD
:1012DC000A04035B00F581525B08B1FBF3F3116860
:1012EC001944FFF7CCFD0028CBD12A5B7600B6FB66
:1012FC00F2F302FB1366AB195B78A85D40EA03209E
:10130C00BDE8F88341F20A04035B00F581529B08A7
:10131C00B1FBF3F311681944FFF7B1FD0028B0D10C
:10132C002A5BB600B6FBF2F302FB1366AB19987896
:10133C00DA78000440EA0260AA5D5B78104340EA68
:10134C00032020F07040BDE8F8830120BDE8F8834D
:10135C002DE9F84341F206030646F15241F2080327
:10136C00C4580D46012C02D10220BDE8F88341F28D
:10137C00140200F580573B689A589442F4D254BB3F
:10138C0003F580521278032A03D141F224029A58B1
:10139C0012BB41F208029A5A9542E5D241F224025C
:1013AC00985841F20C03F4500028DDD041F20A02A7
:1013BC003B6841F21004995A4909B5FBF1F210440B
:1013CC0001FB125541F2140203EB45133051B3509B
:1013DC000020BDE8F883224641F20A0141F20200E6
:1013EC00144641F2140933F801804FEA581113F8EE
:1013FC00008008FB01F845452146386802D2FFF70A
:10140C0009FFCEE7FFF718FF431C044609D001285B
:10141C00AAD93B6853F809309842A5D2A5EB080528
:10142C00E9E70120BDE8F88301292DE9F0470446DE
:10143C000D46164640F2988041F21403C358994267
:10144C0080F0928000F580531B78022B50D0032B38
:10145C0067D0012B40F0888041F20A0A30F80A303C
:10146C0001EB5109B9FBF3F300F58158D8F80010E2
:10147C001944FFF704FD002877D134F80A1015F051
:10148C000105B9FBF1F201FB129217BFA35CF3B299
:10149C0003F00F0033011CBF03F0F0030343A3540C
:1014AC0041F20403012209F10107B7FBF1F1E25407
:1014BC00D8F8003020461944FFF7E1FC002854D13D
:1014CC0041F20A03E25AB7FBF2F302FB137745B180
:1014DC00C6F30712E255012241F20403E254BDE8BF
:1014EC00F087E25DC6F3032622F00F023243F1E7E8
:1014FC0041F20A07C35B00F581525B08B1FBF3F3C1
:10150C0011681944FFF7BBFC78BBE25B6D00B5FBBF
:10151C00F2F302FB1355C6F30722665525446A7095
:10152C00D9E741F20A07C35B00F581529B08B1FB76
:10153C00F3F311681944FFF7A2FCB0B9E25BAD00FC
:10154C00B5FBF2F302FB13556119CB781B0603F0C4
:10155C00704343EA0602C2F3072362554B70130C27
:10156C00120E8B70CA70B6E70220BDE8F0872DE929
:10157C00F04105460F46B9B941F20C03C65836B3D3
:10158C0041F21403C3589E4228BF0126344605F588
:10159C00805808F11408D8F8003001349C4219D353
:1015AC00012E16D8002408E0FFF746FE0128044659
:1015BC003ED9421C04D14FF0FF342046BDE8F081E7
:1015CC0041F21403EB589842F7D33E46DEE701266E
:1015DC00DCE7022421462846FFF72EFE30B1431CDF
:1015EC00E9D0012824D0B442D5D1DBE76FF07042AA
:1015FC0021462846FFF718FFC0B987B941F20C0302
:10160C0041F21002EC50AB58591CD6D0013BAB50F8
:10161C0041F20502AB5C43F00103AB54CDE722462B
:10162C0039462846FFF700FF0028E7D00128C2D032
:10163C000124C2E72DE9F84F41F20603C65A0446CD
:10164C000136B3B2894613B90420BDE8F88F41F2D4
:10165C0010014258002AF7D041F20A0300F58057D6
:10166C003868C35A5B09B6FBF3F503FB15635BB92A
:10167C0041F20C0A0132625054F80A10C1B941F21D
:10168C000803C35A9E42DFD241F2060341F20A021A
:10169C00E6523B6800209A5A5209B6FBF2F102FB63
:1016AC00116641F2140203EB4613A350BDE8F88F08
:1016BC0041F2020310F8038008F1FF3818EA05081C
:1016CC00E2D1FFF7B9FD0128054602D80220BDE89A
:1016DC00F88F421C02D10120BDE8F88F41F21403AF
:1016EC003868C3589D4234D3B9F1000FACD054F8CC
:1016FC000A10FFF73CFF0546002844D00128E5D02E
:10170C00431CE8D03868FFF7B2FB01460028E2D151
:10171C0041F20A02386841F2040A825AFFF7AAFA27
:10172C00D7F8009029464846FFF774FD41F22C0388
:10173C004FF0010B49F8030041F20209386810F828
:10174C000930984510D341F22C028358A3EB0803BF
:10175C00835041F20C033868E5502946FFF75AFDD7
:10176C0041F21003E0508FE700F80AB0FFF74BFB93
:10177C000028B0D141F22C02396808F101088B58CD
:10178C0001338B50DAE70720BDE8F88F2DE9F04FD5
:10179C004FF0FF084FF6FF7241F224030646444611
:1017AC0000F5805A00F5805B85B0C2520AF1100A30
:1017BC000BF1140B06F58053DAF800101868FFF7DC
:1017CC005EFB0746002869D1DBF800502A78002A16
:1017DC0000F08480E52A06D0E97A01F03F0309077E
:1017EC0007D50F2B07D04FF6FF7241F22403F252AC
:1017FC004CE00F2B5BD106F581531B68002B46D0B8
:10180C00500641D502F0BF0441F20602B15A41F232
:10181C00240295F80D80B1526A7B424536D12F785F
:10182C00012027F040077A1E0D274FF0000957437F
:10183C002B4A19F80220A9184978AA5C42EA01221D
:10184C0080B31046019300F0A5FCFE2F03901DD829
:10185C00019B7A1C33F81700029200F09BFC039951
:10186C00814213D1029A019B174609F10109B9F182
:10187C000D0FDDD12A78510603D510B133F817308E
:10188C0023B9013CE4B202E0A242C5D0FF240021FE
:10189C003046FFF7CFFE074600288BD0384605B000
:1018AC00BDE8F08F4FF6FF718A42DED0EEE724B927
:1018BC002846FFF773FA4045F0D041F21803F3586D
:1018CC00DA7AD2078FD403F10B008342E6D015F8F5
:1018DC00011B13F8012B9142F7D084E70427DDE7B5
:1018EC000C2700082DE9F74F0B7880462F2B0F465D
:1018FC0001D05C2B00D1013741F20803002448F8D9
:10190C0003403B781F2B2ED908F5805B0BF1180B8D
:10191C003B783C462F2B07F10107F9D05C2BF7D015
:10192C00002608F581531B6804F1FF399D1E19F838
:10193C00010F771C1F2825D92F2823D05C2821D0F4
:10194C00B7F5807F00930CD0012100F005FC40B16D
:10195C007F28009B12D8804911F8012F72B1824266
:10196C00FAD1062007E021464046FFF7F1FC41F290
:10197C00140348F8034003B0BDE8F08F25F8020FBC
:10198C003E46D4E72028274434BF0424002403EB2C
:10199C004602002EE5D032F8021D202901D02E2956
:1019AC007AD1013EF5E7013133F81120202AFAD023
:1019BC002E2AF8D009B144F003044A4632F8020D3D
:1019CC002E2801D0013EF9D14FF0000A4FF0080942
:1019DC00554633F811004A1C002875D0202803D036
:1019EC002E2805D1B24266D044F003041146F0E72C
:1019FC00CA4562D2B24210D1B9F10B0F05D15FE0EA
:101A0C00B24202D044F003045ED8AD00EDB23246CF
:101A1C004FF00B094FF0080AE8E77F280FD9002197
:101A2C000192009300F098FB009B019A18B14B496E
:101A3C00084410F8800C80B244F0020438B1DFF88E
:101A4C0020E11EF8011F002978D08142F9D15F20D6
:101A5C0044F00304DBF8001001F80A000AF1010A53
:101A6C00C4E745F00205F5E75A0784D441F21403A4
:101A7C0058F80310CB7ADB060CD508F580531B689D
:101A8C0003F580531878FFF7B0F941F2080348F8D2
:101A9C0003003DE705206EE70025202123F81650B2
:101AAC000B22DBF8000003EB46090093FFF7E2F88A
:101ABC002946009B78E7CA459ED3B9F10B0F9FD1FD
:101ACC004FF00B0944F00304DBF800301A78E52AD8
:101ADC0004BF05221A70B9F1080F04BFAD00EDB2B6
:101AEC0005F00C030C2B03D005F00302032A01D1E3
:101AFC0044F00204A10709D405F00305012D08BF29
:101B0C0044F01004042B08BF44F00804DBF8003048
:101B1C000021DC724046FFF71BFC10B94046FFF772
:101B2C0035FEDBF80030DB7A00289DD004287FF4EA
:101B3C0022AF13F0040F08BF05201CE7A0F14101F0
:101B4C0019298ED9A0F1610119299EBF203845F0C1
:101B5C00010580B27EE700BF182700088C2600081C
:101B6C002127000841F218032DE9F04FC5588BB01E
:101B7C0000F5815704460C22294607A83E68FFF75A
:101B8C006FF89DF82730DB077DD500234FF0010956
:101B9C00DFF86482EB723B600B2207A92846FFF743
:101BAC005FF8B9F1050F51D84B46072203F00F002F
:101BBC0000F13001392988BF00F13701013A05A83D
:101BCC0010441B094170F1D17E200AA9114401F87F
:101BDC00140C9A423FD0E95C20293AD12B44072AB5
:101BEC008FBF20210AA9891811F8141C98BF013243
:101BFC0003F8011B591B0729F1D900212046FFF7D7
:101C0C00A7FB8246C0BB2046FFF7C0FD824698BBAF
:101C1C0009F10109B9F1640FBED14FF0070A504622
:101C2C000BB0BDE8F08F102102F0010E0EEB430358
:101C3C0013F4803F18BF83EA080301394FEA5202BC
:101C4C00F2D130F8022F002AEDD1AEE7B01E4B4690
:101C5C00F7E70133BDE71346C0E7013518E001256E
:101C6C001EE0814601212046FFF7E4FC824628B3A2
:101C7C00BAF1040FD1D0D2E7BAF1040FCFD19DF84D
:101C8C002730EB723E609DF827309B07E7D5002587
:101C9C0036F81530002BE0D10D231935B5FBF3F5D3
:101CAC0000212046FFF754FB82460028E0D18146F4
:101CBC0004F5805808F1100804F58056D8F8001087
:101CCC003068FFF7DCF882460028D1D141F21403CA
:101CDC00E218E35803921B78E52B01D0002BC0D1FE
:101CEC0009F101094D45BDD1013D5FD041F206031B
:101CFC00E15A2046491BFFF72BFB824600288ED168
:101D0C0041F21803E058FFF749F84FF6FF790290BB
:101D1C00D8F800103068FFF7B2F8824600287FF43C
:101D2C007EAF039B9DF808201B68D7F800A05A7360
:101D3C000F224FF00D0EE9B2DA724A1E0EFB02F2C0
:101D4C00864618739876D876019248451FBF019A3B
:101D5C003AF8120001320192264A4FEA102B1EF873
:101D6C0002C00EF1010E03F80C009C44002808BFC1
:101D7C004846BEF10D0F8CF801B0E6D1484503D0B2
:101D8C00019A3AF812200AB941F040011970012168
:101D9C0041F2040332682046D1540021FFF74AFC7B
:101DAC00824600287FF43BAF013DB1D141F21003D4
:101DBC003068E158FFF763F8824600287FF42FAFB4
:101DCC0041F2140541F21807202251466059FEF7E2
:101DDC0051FF0B22E1596059FEF742FFE35962595A
:101DEC00DB7A012103F01803137341F20403326808
:101DFC00D15414E70C2700082110010001292DE90A
:101E0C00F04104460D4602D80220BDE8F08141F2B3
:101E1C00140683599942F7D200F5805706441037BF
:101E2C0033689D4205D229462046FFF705FA8046C5
:101E3C0010B90020BDE8F0810128E5D0B0F1FF3FDA
:101E4C0012D0002229462046FFF7EEFA68B93B680B
:101E5C005A1C07D041F2050201333B60A35C43F0EE
:101E6C000103A3544546DBE70120BDE8F0810000E7
:101E7C007FB5019004A840F8041D00911546FEF7AB
:101E8C009CFF061E23DB144A52F826306BB1134913
:101E9C0000240868834204BF00200860C86883429D
:101EAC0003F5805308BFCC601C70019818B1002159
:101EBC0000F58053197042F8260030B1012D08D17D
:101ECC000022694601A8FFF727F804B070BD0B206B
:101EDC00FBE70020F9E700BF400000204400002091
:101EEC002DE9F04FADF5825D81B00DF1200949F877
:101EFC001C1C93460646002800F0D080002300F5F9
:101F0C00805A0DF58050CAF8003002F01E0201A96B
:101F1C001830FFF701F8A9F108080546002840F031
:101F2C00B78041F21803A9F1140248F80320754A4E
:101F3C0008F58153019940461A60FFF7D3FC41F232
:101F4C0014030BF01F0758F8034048B9002C6BD052
:101F5C0017F01E0F14BF012100214046FEF792FE20
:101F6C001BF01C0F6BD0002860D004285AD1664B94
:101F7C001A681AB1DB68002B40F0C1804046FFF7AD
:101F8C00F1FD00284ED141F2140358F8034047F0FC
:101F9C0008073B075DD500F01DF94FF0000BC0F3AF
:101FAC000723E373030CA0732374000E0DF5805309
:101FBC0084F80BB084F81CB084F81DB084F81EB003
:101FCC0084F81FB0607418331B68214603F58053E6
:101FDC001878FEF70AFF012141F204020DF5805337
:101FEC0084F81AB084F81BB084F814B084F815B0D7
:101FFC0018331B688346995458B341F22C029A58F3
:10200C00014618460092FFF7F9FE009A50B941F2CA
:10201C000C01D9F8F80F0BF1FF3343501146FEF7C2
:10202C002EFFB0B1054633E0062099E7E37A13F0B2
:10203C00110F37D11BF0040FABD0082528E0002876
:10204C00F0D1E37AD8062BD41BF0020F01D0DA07BB
:10205C0028D43B0741F22C030DF5805202F11802F3
:10206C00126848BF47F02007D25841F21C0317F002
:10207C00FE0FF25006F581531C6014BF01210021A4
:10208C004046FEF735FE41F22803F05060B90225B8
:10209C0028460DF5825D01B0BDE8F08F0925F7E704
:1020AC000425F5E70725F3E741F2060941F207039A
:1020BC0006F809700027F7540DF580531833D3F840
:1020CC000080214608F580531878FEF78EFE41F209
:1020DC001003F05041F20C03E269F25041F2080394
:1020EC00F75041F21803F75041F22403F75041F234
:1020FC00040338F80920CAF80080F252C8E712200D
:10210C0090E700BF5E0000204400002030B50F4B6C
:10211C005C7A012C18D800245D7AEDB25C555D7A9E
:10212C0003EB85056860587A184402725A7AD2B269
:10213C00501CC0B258723A234B702F2330320A70A5
:10214C008B70CC70204630BD012030BD6002002069
:10215C000022FFF7DBBF00007F2810B516D931B184
:10216C00FF2812D80A4B803833F8100010BD084AEB
:10217C0032F811408BB2844203D001318029F7D15F
:10218C000B4603F18000C0B210BD002010BD00BF93
:10219C002A2700080023064931F8132022B1824275
:1021AC0003D1044A32F8130070470133F4E700BF3F
:1021BC002A2800080A2A000808B503490348FFF733
:1021CC00C7FF034B187008BD7002002010000020E0
:1021DC007402002000207047264B30B59A6989B0F4
:1021EC0042F010029A619A69234D02F0100200929B
:1021FC00009A9A69284642F020029A619A69402115
:10220C0002F020020192019A9A69002442F0040221
:10221C009A619A6902F004020292029A9A6942F057
:10222C0008029A619B69002203F008030393039B45
:10223C00FEF728F94FF400530493104B04A91048EF
:10224C0005930694FEF73EF840230493012305936F
:10225C000693022304A928460793FEF733F8224677
:10226C0021462820FDF7C6FF2820FDF7F7FF09B00F
:10227C0030BD00BF00100240000C014000002110D6
:10228C0000100140012310B590B04FF4A02206932A
:10229C000A934FF480330792022400220E934FF4DA
:1022AC00E01306A808920D940F93FEF7FDF800B109
:1022BC00FEE70F2301934FF48063039005902146B2
:1022CC0001A802940493FEF7B7FA044600B1FEE7A6
:1022DC00FEF756FB4FF47A73B0FBF3F0FDF7CAFF31
:1022EC000420FDF7DDFF224621464FF0FF30FDF7BD
:1022FC0081FF10B010BD000000B5ADF5015D89B0D7
:10230C00FDF742FF012240211248FEF7BBF80DF504
:10231C008150012210491030FFF7AAFD20B90A2282
:10232C000E4901A8FFF7DCFD01220B490020FFF745
:10233C009FFD002240210748FEF7A4F8FFF7A2FFFB
:10234C00FFF74AFF00F00EF8FFF736FF00F0E4F855
:10235C00FEE700BF000C0140EA2B0008EE2B000842
:10236C00FEE7000008B54FF4827E0E480E4B4FF48A
:10237C00007280E80840002382618360C3600361BF
:10238C00436120220362436283620A23C261C362F7
:10239C00FEF71CFB28B1BDE808404F210348FFF7AE
:1023AC00DFBF08BDD422002000300140FB2B000809
:1023BC007FB50268114B9A421DD103F560439A69AF
:1023CC0002A942F480529A619B690D4803F4805330
:1023DC000193019BA02302930223039303230593F0
:1023EC00FDF770FF40230293002302A904480393D6
:1023FC000493FDF767FF07B05DF804FB0030014064
:10240C0000080140254B07B59A69032042F00102F0
:10241C009A619A6902F001020092009ADA6942F01C
:10242C008052DA61DB6903F080530193019BFDF765
:10243C00CFFE00226FF00B001146FDF7DBFE0022F1
:10244C006FF00A001146FDF7D5FE00226FF009006F
:10245C001146FDF7CFFE00226FF004001146FDF788
:10246C00C9FE00226FF003001146FDF7C3FE0022E7
:10247C006FF001001146FDF7BDFE00224FF0FF305A
:10248C001146FDF7B7FE064A536823F0E06343F0AC
:10249C000073536003B05DF804FB00BF00100240F2
:1024AC00000001407047FEE7FEE7FEE7FEE77047DD
:1024BC007047704708B5FDF779FEBDE80840FDF799
:1024CC00FCBE4FF40050FDF7E3BF00000F4B1A6841
:1024DC0042F001021A6059680D4A0A405A601A68A3
:1024EC0022F0847222F480321A601A6822F480225C
:1024FC001A605A6822F4FE025A604FF41F029A6066
:10250C004FF00062034B9A60704700BF001002400E
:10251C000000FFF800ED00E008B54FF4E13E0B4879
:10252C000B4B0C2280E80840002342618360C3609F
:10253C0003618361C361FEF723FB28B1BDE808404A
:10254C004C210448FFF70CBF08BD00BF2C23002012
:10255C0000440040202C00087FB502680C4B9A42C6
:10256C0013D103F5E633DA6902A942F40032DA61D9
:10257C00DB69084803F400330193019B0C2302939D
:10258C00022303930593FDF79DFE07B05DF804FB52
:10259C0000440040000801400122024B1A701878D8
:1025AC00704700BF0C0000200020704701207047CE
:1025BC00002070470122024B1A701878704700BF38
:1025CC000C000020002103E00B4B5B5843500431FE
:1025DC000A480B4B42189A42F6D30A4A02E00023EF
:1025EC0042F8043B084B9A42F9D3FFF76FFF00F017
:1025FC000FF8FFF781FE7047382C00080000002010
:10260C0024000020240000206C230020FEE70000A2
:10261C0070B500250C4E0D4CA41BA410A54209D17D
:10262C0000F01AF800250A4E0A4CA41BA410A5426F
:10263C0005D170BD56F8253098470135EEE756F8B0
:10264C00253098470135F2E7302C0008302C000873
:10265C00302C0008342C0008F8B500BFF8BC08BCBE
:10266C009E467047F8B500BFF8BC08BC9E46704744
:10267C0002030405060708090A0B0C0D0E0F1010B7
:10268C00809A90B68EB78F80D2D3D4D8D7DE8E8F67
:10269C00909292E299E3EAEB59999A9D9C9D9E9FA8
:1026AC00B5D6E0E9A5A5A6A7A8A9AAABAC21AEAF63
:1026BC00B0B1B2B3B4B5B6B7B8B9BABBBCBDBEBF96
:1026CC00C0C1C2C3C4C5C7C7C8C9CACBCCCDCECF85
:1026DC00D0D1D2D3D4D5D6D7D8D9DADBDCDDDEDF76
:1026EC00E0E1E2E3E5E5E6E7E7E9EAEBEDEDEEEF65
:1026FC00F0F1F2F3F4F5F6F7F8F9FAFBFCFDFEFF56
:10270C0001030507090E10121416181C1E222A3A72
:10271C003C3E3F7C7F002B2C3B3D5B5D0000C700AB
:10272C00FC00E900E200E400E000E500E700EA005C
:10273C00EB00E800EF00EE00EC00C400C500C9009F
:10274C00E600C600F400F600F200FB00F900FF0002
:10275C00D600DC00F800A300D800D7009201E100FD
:10276C00ED00F300FA00F100D100AA00BA00BF009E
:10277C00AE00AC00BD00BC00A100AB00BB009125BD
:10278C009225932502252425C100C200C000A90072
:10279C006325512557255D25A200A500102514257C
:1027AC0034252C251C2500253C25E300C3005A2587
:1027BC00542569256625602550256C25A400F0005C
:1027CC00D000CA00CB00C8003101CD00CE00CF0034
:1027DC0018250C2588258425A600CC008025D3003F
:1027EC00DF00D400D200F500D500B500FE00DE00FD
:1027FC00DA00DB00D900FD00DD00AF00B400AD0055
:10280C00B1001720BE00B600A700F700B800B0005A
:10281C00A800B700B900B300B200A025A000610069
:10282C006200630064006500660067006800690070
:10283C006A006B006C006D006E006F007000710020
:10284C0072007300740075007600770078007900D0
:10285C007A00A100A200A300A500AC00AF00E0002C
:10286C00E100E200E300E400E500E600E700E80038
:10287C00E900EA00EB00EC00ED00EE00EF00F000E8
:10288C00F100F200F300F400F500F600F800F90096
:10289C00FA00FB00FC00FD00FE00FF00010103013B
:1028AC000501070109010B010D010F0111011301B4
:1028BC001501170119011B011D011F012101230124
:1028CC002501270129012B012D012F013101330194
:1028DC00350137013A013C013E01400142014401FE
:1028EC00460148014B014D014F0151015301550166
:1028FC00570159015B015D015F01610163016501D4
:10290C00670169016B016D016F0171017301750143
:10291C0077017A017C017E019201B103B203B3030A
:10292C00B403B503B603B703B803B903BA03BB03C7
:10293C00BC03BD03BE03BF03C003C103C303C40375
:10294C00C503C603C703C803C903CA033004310453
:10295C00320433043404350436043704380439049F
:10296C003A043B043C043D043E043F04400441044F
:10297C0042044304440445044604470448044904FF
:10298C004A044B044C044D044E044F0451045204AD
:10299C0053045404550456045704580459045A0457
:1029AC005B045C045E045F0470217121722173214D
:1029BC007421752176217721782179217A217B2147
:1029CC007C217D217E217F2141FF42FF43FF44FF7B
:1029DC0045FF46FF47FF48FF49FF4AFF4BFF4CFFAF
:1029EC004DFF4EFF4FFF50FF51FF52FF53FF54FF5F
:1029FC0055FF56FF57FF58FF59FF5AFF0000410083
:102A0C00420043004400450046004700480049008E
:102A1C004A004B004C004D004E004F00500051003E
:102A2C0052005300540055005600570058005900EE
:102A3C005A002100E0FFE1FFE5FFE2FFE3FFC000E9
:102A4C00C100C200C300C400C500C600C700C80056
:102A5C00C900CA00CB00CC00CD00CE00CF00D00006
:102A6C00D100D200D300D400D500D600D800D900B4
:102A7C00DA00DB00DC00DD00DE0078010001020181
:102A8C000401060108010A010C010E0110011201DA
:102A9C001401160118011A011C011E01200122014A
:102AAC002401260128012A012C012E0130013201BA
:102ABC003401360139013B013D013F014101430124
:102ACC00450147014A014C014E015001520154018C
:102ADC00560158015A015C015E01600162016401FA
:102AEC00660168016A016C016E017001720174016A
:102AFC00760179017B017D0191019103920393038E
:102B0C009403950396039703980399039A039B03E5
:102B1C009C039D039E039F03A003A103A303A40393
:102B2C00A503A603A703A803A903AA031004110471
:102B3C0012041304140415041604170418041904BD
:102B4C001A041B041C041D041E041F04200421046D
:102B5C00220423042404250426042704280429041D
:102B6C002A042B042C042D042E042F04010402042B
:102B7C0003040404050406040704080409040A04F5
:102B8C000B040C040E040F046021612162216321EB
:102B9C006421652166216721682169216A216B21E5
:102BAC006C216D216E216F2121FF22FF23FF24FF59
:102BBC0025FF26FF27FF28FF29FF2AFF2BFF2CFFCD
:102BCC002DFF2EFF2FFF30FF31FF32FF33FF34FF7D
:102BDC0035FF36FF37FF38FF39FF3AFF0000303A38
:102BEC002F0073645F77726974652E747874002E8D
:102BFC002E2F5372632F7370692E63000000000038
:102C0C000000000001020304060708090000000090
:102C1C00010203042E2E2F5372632F75736172748D
:042C2C002E63000013
:042C30003101000866
:042C34000D01000886
:102C3800010000001000000000A24A04010000008A
:102C4800C1250008A5250008BD250008B5250008F0
:042C5800B925000892
:04000005080025D1F9
:00000001FF
